:020000040800F2
:1000000078060020650100086D0100086F010008F6
:1000100000000000000000000000000000000000E0
:100020000000000000000000000000007101000856
:1000300000000000000000007301000875010008C6
:100040007701000800000000770100087701000830
:1000500077010008770100087701000877010008A0
:100060000000000077010008770100087701000810
:100070007701000875030008770100080000000000
:100080007701000800000000000000007701000870
:1000900000000000770100087701000877010008E0
:1000A0007701000877010008770100087701000850
:1000B00077010008000000000000000000000000C0
:1000C00000F002F800F03EF812A030C808382418FA
:1000D0002D18AC4201D100F035F80FCCA246AB464A
:1000E0000CA730CF2D1B083F3F197C427F1E544484
:1000F0002D090426F441641EAC4201D300F022F81D
:100100000126334200D0FB1A3343984754465D46DC
:10011000DFE70000F40A0000040B00007047000055
:100120000023002400250026103A01D378C1FBD813
:10013000520700D330C100D50B6070471FB51FBDFB
:1001400010B510BD00F0E3F81146FFF7F7FF00F01F
:1001500053FB00F0FBF803B4FFF7F2FF03BC00F021
:1001600001F900000748804707480047FEE7FEE71F
:10017000FEE7FEE7FEE7FEE704480549054A064BB1
:100180007047000073030008C100000878000020D9
:10019000780600207802002078020020002203095F
:1001A0008B422CD3030A8B4211D300239C464EE092
:1001B00003460B433CD4002243088B4231D303094E
:1001C0008B421CD3030A8B4201D394463FE0C30900
:1001D0008B4201D3CB01C01A524183098B4201D318
:1001E0008B01C01A524143098B4201D34B01C01A03
:1001F000524103098B4201D30B01C01A5241C3087B
:100200008B4201D3CB00C01A524183088B4201D3E9
:100210008B00C01A524143088B4201D34B00C01AD5
:100220005241411A00D201465241104670475DE0EA
:10023000CA0F00D04942031000D3404253409C46AD
:10024000002203098B422DD3030A8B4212D389016A
:10025000FC2212BA030A8B420CD3890192118B4201
:1002600008D3890192118B4204D389013AD09211AB
:1002700000E08909C3098B4201D3CB01C01A524166
:1002800083098B4201D38B01C01A524143098B422F
:1002900001D34B01C01A524103098B4201D30B0118
:1002A000C01A5241C3088B4201D3CB00C01A52413D
:1002B00083088B4201D38B00C01A5241D9D2430824
:1002C0008B4201D34B00C01A5241411A00D2014661
:1002D0005241104663465B1001D34042002B00D5CB
:1002E0004942704763465B1000D3404201B505495F
:1002F000002802DC491C084000E00846C046C04611
:1003000002BD00BFFFFFFF7F704770477047754613
:1003100000F024F8AE46050069465346C008C00008
:10032000854618B020B5FFF727FF60BCB64600260B
:100330000027C0C5C0C5C0C5C0C5C0C5C0C5C0C5F3
:10034000C0C5403D490849008D46704710B5044678
:10035000C046C0462046FFF7FEFE10BD004870476D
:100360000000002001491820ABBEFEE72600020075
:10037000704770470A480068C00700280ED0FFE7A2
:1003800007490868012290430860E3490888401C37
:10039000088004490888401C0880FFE77047C04671
:1003A000102C01407000002081B0014668460170A9
:1003B00000214056002809D4FFE7684601781F2035
:1003C00001400120884002490860FFE701B0704702
:1003D00000E100E070B582B0024601A80270009111
:1003E00000214056002816D4FFE7002401A9085731
:1003F0000322D3431840174A805809578C07E50E4B
:10040000FF24AC40A043009CA401E4B2AC402043D4
:10041000194088501AE001A908780F2420400838B4
:100420000322D34318400A4A8058002549578D07B4
:10043000EE0EFF25B540A843009DAD01EDB2B540DD
:1004400028432140083919408850FFE702B070BDA9
:100450001CED00E000E400E081B072480068C007D5
:1004600000280ED0FFE76F49086802221043086099
:10047000FFE76C480068C007002801D0FFE7F8E7F5
:10048000FFE768490868012212071043086000204E
:100490000090FFE70098C0087C2806D8FFE700BF5F
:1004A000FFE70098401C0090F4E701B07047C04699
:1004B00010B582B0964908680122104308600868A8
:1004C0000223184308605248016812051143016075
:1004D000504A116803239B07994311600068C007C5
:1004E000002806D1FFE74A49086801221043086046
:1004F000FFE74949086810221043086005200107FA
:100500000191086803221043086008680C2318430F
:10051000086008683023184308600868C02318433F
:1005200008600868130218430860086893021843BB
:1005300008600868130318430860086893031843A9
:100540000860086814052043086072490868184369
:10055000086032490868920790430860FFF77CFF03
:100560002F4908680122104308602E49086810438B
:100570000860FFE72A480068C007002801D1FFE7AC
:10058000F8E7294800688002002814D5FFE72449CD
:10059000086801225303184308602349086852057C
:1005A00090430860FFE71E4800688004002801D4DB
:1005B000FFE7F8E7FFE71C4A10681821884310603E
:1005C000106820218843106011680120430399437B
:1005D0001160164A116807242143116011687024C4
:1005E00021431160124A11688405214311600C4AAD
:1005F0001168194311600F490860FFE70848006857
:100600008004002801D4FFE7F8E702B010BDC0461F
:1006100040100240541002400000014010240140EC
:1006200000240140082401400C240140142401400E
:10063000082701402824014082B001A90880002039
:100640000090FFE7009801A90A887D21C900514365
:10065000884206D2FFE700BFFFE70098401C0090E9
:10066000F0E702B07047000080B5B0490868022288
:100670001043086027490868012398430860086808
:100680009043086000215A48405E02283DDBFFE7A6
:1006900000215748405E032837DCFFE71F48006809
:1006A000C007002807D1FFE71D49012008601D4849
:1006B00000F004FAFFE71A48006801280ED1FFE7AE
:1006C00016480068C007002807D0FFE71649012038
:1006D0000860164800F0F2F9FFE7FFE710480068ED
:1006E000012811D1FFE71048006801280CD1FFE76D
:1006F0004049012008600E4800F0E0F90849002058
:10070000086009490860FFE7FFE73A48006880BDD4
:100710003410024000040050640000201004005017
:1007200068000020000C00086C000020F70B000897
:10073000D90B000880B5FFF797FF00F0D1F92B48DF
:1007400000F0BCF900212A48405E00280AD4FFE7E7
:1007500000212748405E082804DCFFE7012000F064
:1007600069F8FFE700212248405E09280ADBFFE71D
:1007700000211F48405E0A2804DCFFE7032000F048
:1007800059F832E000211A48405E0B280ADBFFE7E7
:1007900000211748405E122804DCFFE7022000F029
:1007A00049F821E000211248405E13280ADBFFE7E8
:1007B00000210F48405E142804DCFFE7032000F00E
:1007C00039F810E000210A48405E15280ADBFFE7EF
:1007D0007D20C000FFF730FF054900200880054953
:1007E0000860FFE7FFE7FFE7FFE780BDD60B0008E3
:1007F000640000206000002080B582B000200190DD
:100800004B20400200F0F8F8074800F057F907487D
:10081000074900F097F8FFF74BFEFFE7FFF78AFF65
:100820006420FFF709FFF9E7C40B0008FF0F000081
:10083000430F000080B582B001908D490868012205
:1008400010430860052001070091086820239843A1
:1008500008600868102318430860086880239843DC
:1008600008600868402318430860086853029843EA
:10087000086008681302184308600868D3029843A8
:10088000086008689202104308600198012815D199
:10089000FFE7274B186810221043186025490868A5
:1008A0001043086018682022D2431040186008687E
:1008B00010400860224800F001F934E00198022855
:1008C00015D1FFE71A4B18681021CA431040186071
:1008D0001849086810400860186820221043186002
:1008E000086810430860154800F0E8F81AE001981D
:1008F000032816D1FFE70E4B18681021CA43104099
:1009000018600C4908681040086018682022D2431B
:1009100010401860086810400860074800F0CEF8E2
:10092000FFE7FFE7FFE702B080BDC046341002409A
:100930001400005018000050F20B0008ED0B0008E6
:10094000E80B0008F0B585B000910246009804A9B4
:100950000A8003AA01921080464B18680122D40233
:10096000204318601F480368134303600368102482
:10097000E7433B40036003682026B34303600368FA
:100980004025AB43036003681402A343036003687C
:100990005402A34303600368802423430360019847
:1009A0000988114B1960114B196839401960196891
:1009B000314319601968294319601968A143196006
:1009C00000880B4908600B490868104308600D2037
:1009D00002900C21FFF7FEFC0298FFF7E5FC05B042
:1009E000F0BDC046002C0140282C0140182C0140CD
:1009F0002C2C01400C2C014080B582B001901C4988
:100A000008680222104308601A490868012200920F
:100A10009303184308601849086813039843086053
:100A20000868530318430860144908680F231B061D
:100A3000984308600868130618430860104908685E
:100A400003239843086008681043086001990D4823
:100A5000FFF7A4FB009A0C4908600C4908680823BA
:100A60001843086008681043086002B080BDC046A3
:100A70003410024040100240000400502404005092
:100A8000541002400024F4000C38014000380140AA
:100A900081B0014668460170007806490860FFE7AA
:100AA000054800684006002801D4FFE7F8E701B0D8
:100AB0007047C046283801401C38014080B582B0DC
:100AC0000190FFE701980078002807D0FFE7019820
:100AD000411C01910078FFF7DBFFF3E702B080BD16
:100AE00080B590B00E900BA93348088133480C9024
:100AF00033480B9000200790059004900E98002832
:100B000009D5FFE70E9840420E900798401C0790C9
:100B100001200490FFE70E98039007980690FFE7E6
:100B20000698092817DCFFE70E98002804D1FFE794
:100B30003020FFF7ADFF0EE00398002801D1FFE75A
:100B400009E003980A21FFF733FB0390FFE70698BB
:100B5000401C0690E4E70698401E0290FFE70298CA
:100B6000002817D4FFE70E980A210191FFF720FB18
:100B7000084601990590059A0BA8805C029B08AA7B
:100B8000D0540E98FFF714FB0E90FFE70298401E1A
:100B90000290E4E70498012804D1FFE708A92D207A
:100BA0000870FFE7069A08A800218154FFF786FF26
:100BB0000F9810B080BDC046383900003435363744
:100BC000303132330D0A44656275672053746172A7
:100BD0007465640D0A000A0D006D616B6520686123
:100BE0006C6C5F663D3120004D312046004D312058
:100BF00052004D31205300676F74206869676800A8
:100C0000676F74206C6F7700180C000800000020DC
:080C1000780600002001000835
:040000050800016589
:00000001FF
