:020000040800F2
:1000000068060020650100086D0100086F01000806
:1000100000000000000000000000000000000000E0
:100020000000000000000000000000007101000856
:1000300000000000000000007301000875010008C6
:100040007701000800000000770100087701000830
:1000500077010008770100087701000877010008A0
:100060000000000077010008770100087701000810
:100070007701000875030008770100080000000000
:100080007701000800000000000000007701000870
:1000900000000000770100087701000877010008E0
:1000A0007701000877010008770100087701000850
:1000B00077010008000000000000000000000000C0
:1000C00000F002F800F03EF812A030C808382418FA
:1000D0002D18AC4201D100F035F80FCCA246AB464A
:1000E0000CA730CF2D1B083F3F197C427F1E544484
:1000F0002D090426F441641EAC4201D300F022F81D
:100100000126334200D0FB1A3343984754465D46DC
:10011000DFE70000300800004008000070470000E2
:100120000023002400250026103A01D378C1FBD813
:10013000520700D330C100D50B6070471FB51FBDFB
:1001400010B510BD00F0E3F81146FFF7F7FF00F01F
:1001500089FA00F0FBF803B4FFF7F2FF03BC00F0EC
:1001600001F900000748804707480047FEE7FEE71F
:10017000FEE7FEE7FEE7FEE704480549054A064BB1
:100180007047000073030008C100000868000020E9
:10019000680600206802002068020020002203098F
:1001A0008B422CD3030A8B4211D300239C464EE092
:1001B00003460B433CD4002243088B4231D303094E
:1001C0008B421CD3030A8B4201D394463FE0C30900
:1001D0008B4201D3CB01C01A524183098B4201D318
:1001E0008B01C01A524143098B4201D34B01C01A03
:1001F000524103098B4201D30B01C01A5241C3087B
:100200008B4201D3CB00C01A524183088B4201D3E9
:100210008B00C01A524143088B4201D34B00C01AD5
:100220005241411A00D201465241104670475DE0EA
:10023000CA0F00D04942031000D3404253409C46AD
:10024000002203098B422DD3030A8B4212D389016A
:10025000FC2212BA030A8B420CD3890192118B4201
:1002600008D3890192118B4204D389013AD09211AB
:1002700000E08909C3098B4201D3CB01C01A524166
:1002800083098B4201D38B01C01A524143098B422F
:1002900001D34B01C01A524103098B4201D30B0118
:1002A000C01A5241C3088B4201D3CB00C01A52413D
:1002B00083088B4201D38B00C01A5241D9D2430824
:1002C0008B4201D34B00C01A5241411A00D2014661
:1002D0005241104663465B1001D34042002B00D5CB
:1002E0004942704763465B1000D3404201B505495F
:1002F000002802DC491C084000E00846C046C04611
:1003000002BD00BFFFFFFF7F704770477047754613
:1003100000F024F8AE46050069465346C008C00008
:10032000854618B020B5FFF727FF60BCB64600260B
:100330000027C0C5C0C5C0C5C0C5C0C5C0C5C0C5F3
:10034000C0C5403D490849008D46704710B5044678
:10035000C046C0462046FFF7FEFE10BD004870476D
:100360000000002001491820ABBEFEE72600020075
:10037000704770470A480068C00700280ED0FFE7A2
:100380000749086801229043086006490888401C14
:10039000088005490888401C0880FFE77047C04670
:1003A000102C0140640000206600002081B001464E
:1003B0006846017000214056002809D4FFE76846CE
:1003C00001781F2001400120884002490860FFE7B2
:1003D00001B0704700E100E070B582B0024601A8AC
:1003E0000270009100214056002816D4FFE7002437
:1003F00001A908570322D3431840174A80580957C8
:100400008C07E50EFF24AC40A043009CA401E4B29D
:10041000AC402043194088501AE001A908780F2405
:10042000204008380322D34318400A4A8058002548
:1004300049578D07EE0EFF25B540A843009DAD013D
:10044000EDB2B54028432140083919408850FFE7F4
:1004500002B070BD1CED00E000E400E081B0704827
:100460000068C00700280ED0FFE76D490868022227
:1004700010430860FFE76A480068C007002801D001
:10048000FFE7F8E7FFE76649086801221207104313
:10049000086000200090FFE70098C0087C2806D87C
:1004A000FFE700BFFFE70098401C0090F4E701B0B1
:1004B0007047C04610B582B0C54908680122104394
:1004C00008600868022318430860C24801681205E2
:1004D00011430160C14A116803239B0799431160CE
:1004E0000068C007002806D1FFE7BA490868012262
:1004F00010430860FFE7474908681022104308606E
:10050000052001070191086803221043086008686C
:100510000C231843086008683023184308600868F3
:10052000C02318430860086813021843086008686D
:1005300093021843086008681303184308600868AA
:100540009303184308600868140520430860D849DD
:1005500008681843086030490868920790430860AB
:10056000FFF77CFF2D4908680122104308602C49E1
:10057000086810430860FFE728480068C0070028A3
:1005800001D1FFE7F8E7274800688002002814D56A
:10059000FFE72249086801225303184308602149F4
:1005A0000868520590430860FFE71C480068800413
:1005B000002801D4FFE7F8E7FFE71A4A106818217E
:1005C0008843106010682021884310601168012062
:1005D000430399431160144A1168072421431160B1
:1005E0001168702421431160104A11688405214369
:1005F00011600A4A1168194311600D490860FFE74C
:10060000064800688004002801D4FFE7F8E702B03C
:1006100010BDC046000001401024014000240140EC
:10062000082401400C240140142401400827014003
:100630002824014082B001A9088000200090FFE733
:10064000009801A90A887D21C9005143884206D239
:10065000FFE700BFFFE70098401C0090F0E702B002
:100660007047000080B582B0002001904B2040020E
:1006700000F072F8084800F0CFF80848084900F088
:1006800011F8FFF717FFFFE77D20C000FFF7D2FF4B
:1006900000F0D4F8F8E7C046CC080008FF0F0000CF
:1006A000430F0000F0B585B000910246009804A900
:1006B0000A8003AA01921080464B18680122D402D6
:1006C000204318601F480368134303600368102425
:1006D000E7433B40036003682026B343036003689D
:1006E0004025AB43036003681402A343036003681F
:1006F0005402A343036003688024234303600198EA
:100700000988114B1960114B196839401960196833
:10071000314319601968294319601968A1431960A8
:1007200000880B4908600B490868104308600D20D9
:1007300002900C21FFF750FE0298FFF737FE05B03C
:10074000F0BDC046002C0140282C0140182C01406F
:100750002C2C01400C2C014080B582B001905349F3
:1007600008680222104308601A49086801220092B2
:100770009303184308604E490868130398430860C0
:100780000868530318430860134908680F231B06C1
:100790009843086008681306184308600F49086802
:1007A00003239843086008681043086001990C48C7
:1007B000FFF7F4FC009A0B4908600B49086808230E
:1007C0001843086008681043086002B080BDC04646
:1007D00034100240401002402404005054100240E3
:1007E0000024F4000C3801400038014081B001467B
:1007F00068460170007806490860FFE70548006810
:100800004006002801D4FFE7F8E701B07047C04672
:10081000283801401C38014080B582B00190FFE7C4
:1008200001980078002807D0FFE70198411C01914A
:100830000078FFF7DBFFF3E702B080BD80B51B490E
:100840000868022210430860194908680122D3038E
:1008500098430860086892031043086015490868C7
:100860008022104308601449086810430860002182
:100870001248405E082811DBFFE70E490868802215
:10088000D243104008600C490868104008600C49C9
:10089000012008600C48FFF7BFFF06E00849002070
:1008A00008600848FFF7B8FFFFE780BD341002403A
:1008B000000400501404005018040050660000208A
:1008C000600000201E090008110900080D0A446597
:1008D00062756720537461727465640D0A000A0DB5
:1008E000006D616B652068616C6C5F663D31200056
:1008F00048616C6C20666565646261636B203D20B5
:1009000031004D312046004D312052004D312053F1
:100910000076616C76652066696C6C656400766152
:100920006C7665206973206E6F742066696C6C65E7
:100930006400676F74206869676800676F74206C73
:100940006F770000540900080000002068060000CE
:04095000200100087A
:040000050800016589
:00000001FF
